:0400000026EF08F0EF
:08000800046ED8CF05F0E0CF33
:1000100006F00001E9CF0CF0EACF07F0E1CF08F0DD
:10002000E2CF09F0D9CF0AF0DACF0BF0F3CF12F01C
:10003000F4CF13F0FACF14F000C00EF001C00FF0AF
:1000400002C010F003C011F0F2A82AEF00F0F2B2E3
:10005000D5EF01F00EC000F00FC001F010C002F0AB
:1000600011C003F00CC0E9FF07C0EAFF078E08C00B
:10007000E1FF09C0E2FF0AC0D9FF0BC0DAFF12C0DE
:10008000F3FF13C0F4FF14C0FAFF045006C0E0FFF2
:1000900005C0D8FF10005C6A5D6A010E5E6EDA6A08
:1000A000D96A616A540E606EEA6A580EE96E61C0E0
:1000B000E2FF60C0E1FF5EC05FF0D890E550EE0265
:1000C000F3505C22F4505D225F2EF7D75CC0DEFF58
:1000D0005DC05CF05D6AD8B05D2A602AD8B4612A40
:1000E0005E2A5E500508E0E1000CFE0E9EA8FED7D9
:1000F000AD6E010E9EA8FED7AD6E000C0900F6CFC6
:1001000055F0F7CF56F0F5509EA8FED7AD6E55C00E
:10011000F6FF56C0F7FF542EF1D7000CEA6A550ED1
:10012000E96EEF500DE0060E016E006A002EFED75C
:10013000012EFBD77B0E006E002EFED7EF2EF3D7DD
:10014000000C359035922A6A296A2C6A2B6A3598F8
:1001500035943596359A94928B9294928B92949290
:100160008B9294928B929290899096908D90969289
:100170008D92000C5C50016A5B5C03E25BC000F096
:100180000CD0006A080E5D6E5B3600365C50005C79
:10019000D8B0006E01365D2EF7D7000C200E56A8A1
:1001A000300E576E55C000F055AE07D0001E002A25
:1001B00000C055F02D0E576E568E015055C05BF0A5
:1001C000640E5C6ED7DF00C055F0300E0124586E0F
:1001D00055C05BF00A0E5C6ECDDF300E00245A6E07
:1001E000300E0124596E57C000F056A602D056AE0C
:1001F000569456B80BD056AE22D056B420D000C07C
:1002000058F056B21CD000C059F019D0300E585CCE
:1002100016E100C058F0200E576E56A604D0569432
:10022000568256AE5692300E595C09E100C059F024
:10023000200E586E56A6F7D7569256AE569056A434
:1002400004D057509EA8FED7AD6E56A204D0585089
:100250009EA8FED7AD6E56A004D059509EA8FED7DA
:10026000AD6E5A509EA8FED7AD6EC8EF03F0006A7F
:10027000016A026A036A5C6A5D6A5E6A5F6A5B5071
:100280005A10591058102CE0200E606ED890543639
:100290005536563657365C365D365E365F365B50C1
:1002A0005F5C08E15A505E5C05E159505D5C02E11B
:1002B00058505C5C0FE358505C5E5950D8A0593CD4
:1002C0005D5E5A50D8A05A3C5E5E5B50D8A05B3C45
:1002D0005F5ED8800036013602360336602ED6D7F0
:1002E000EA6A5C0EE96E000CEACF5CF0E9CF5BF0E5
:1002F0005538F009576E5726E20F586E320F5A6E76
:1003000055500F0B582658265A26E90F596E592674
:10031000592654380F0B59265A2659365A365A1E22
:100320005A3654500F0B5A265736070E566E0A0E81
:1003300059065A26FDE358065926FDE35706582666
:10034000FDE356065726FDE3EA6A560EE96E070EF0
:100350005B145B9CE9265A0EE95CD8B45B8CEF50C9
:10036000006E08E15BBC06D05BB80CD05BB602D077
:10037000200E03D05B865B98300E002600509EA8AE
:10038000FED7AD6EEE505BACE6D7000C206A210EB6
:100390001F6E040E226ED40E216E246AB40E236EDC
:1003A000286A140E276E89EF05F0F29895908C80DC
:1003B00095928C9295948C94958683A61ED0310E3E
:1003C0009EA8FED7AD6E576A566A556A0A0E546EDD
:1003D0001AC05BF019C05AF018C059F017C058F095
:1003E0005ADE010E0024176E000E0120186E000E5A
:1003F0000220196E000E03201A6E958883A81ED065
:10040000340E9EA8FED7AD6E576A566A556A0A0E1C
:10041000546E1AC05BF019C05AF018C059F017C0DA
:1004200058F039DE040E0024176E000E0120186EFD
:10043000000E0220196E000E03201A6E958A83AA00
:100440001ED0370E9EA8FED7AD6E576A566A556A03
:100450000A0E546E1AC05BF019C05AF018C059F059
:1004600017C058F018DE070E0024176E000E01208A
:10047000186E000E0220196E000E03201A6E958C65
:1004800083AC04D02A0E9EA8FED7AD6E95928C82C6
:1004900095908C9095948C94958683A61ED0320E60
:1004A0009EA8FED7AD6E576A566A556A0A0E546EFC
:1004B0001AC05BF019C05AF018C059F017C058F0B4
:1004C000EADD020E0024176E000E0120186E000EE9
:1004D0000220196E000E03201A6E958883A81ED084
:1004E000350E9EA8FED7AD6E576A566A556A0A0E3B
:1004F000546E1AC05BF019C05AF018C059F017C0FA
:1005000058F0C9DD050E0024176E000E0120186E8C
:10051000000E0220196E000E03201A6E958A83AA1F
:100520001ED0380E9EA8FED7AD6E576A566A556A21
:100530000A0E546E1AC05BF019C05AF018C059F078
:1005400017C058F0A8DD080E0024176E000E012019
:10055000186E000E0220196E000E03201A6E958C84
:1005600083AC1AD0300E9EA8FED7AD6E576A566A7D
:10057000556A0A0E546E1AC05BF019C05AF018C0C2
:1005800059F017C058F087DD03C01AF002C019F007
:1005900001C018F000C017F095948C8495908C9051
:1005A00095928C92958683A61ED0330E9EA8FED778
:1005B000AD6E576A566A556A0A0E546E1AC05BF0E1
:1005C00019C05AF018C059F017C058F064DD030E76
:1005D0000024176E000E0120186E000E0220196E06
:1005E000000E03201A6E958883A81ED0360E9EA892
:1005F000FED7AD6E576A566A556A0A0E546E1AC017
:100600005BF019C05AF018C059F017C058F043DD1C
:10061000060E0024176E000E0120186E000E022038
:10062000196E000E03201A6E958A83AA1ED0390E09
:100630009EA8FED7AD6E576A566A556A0A0E546E6A
:100640001AC05BF019C05AF018C059F017C058F022
:1006500022DD090E0024176E000E0120186E000E18
:100660000220196E000E03201A6E958C83AC6BD29B
:100670001AC01EF019C01DF018C01CF017C01BF0E6
:100680001A6A196A186A176A30DD1F501B5C27E165
:1006900020501C5C24E11D5222E11E5220E135B0A5
:1006A0001ED023DDFE0E9EA8FED7AD6E800E9EA846
:1006B000FED7AD6E5E0EF66E0B0EF76E0D0E546E1F
:1006C0001DDD040E546EFA0E556E28DD542EFBD738
:1006D0000CDD35801E6A1D6A1C6A1B6A34D21F50ED
:1006E0001B5C26E120501C5C23E11D5221E11E52BF
:1006F0001FE135A21DD035A01BD0F7DCFE0E9EA851
:10070000FED7AD6E800E9EA8FED7AD6E4F0E9EA892
:10071000FED7AD6E6B0E9EA8FED7AD6E040E546E66
:10072000FA0E556EFBDC542EFBD7DFDC0ADD0BD254
:1007300021501B5C2FE122501C5C2CE11D522AE150
:100740001E5228E135A026D0D0DCFE0E9EA8FED792
:10075000AD6E800E9EA8FED7AD6E700EF66E0B0EBF
:10076000F76E0F0E546ECADC040E546EFA0E556E00
:10077000D5DC542EFBD7B9DC35901E6A1D6A1C6A85
:100780001B6A000E35B0010E556E1F0E566E06D553
:10079000D8DCD9D121501B5C26E122501C5C23E11E
:1007A0001D5221E11E521FE135B01DD09EDCFE0E10
:1007B0009EA8FED7AD6E800E9EA8FED7AD6E840EAD
:1007C000F66E0B0EF76E100E546E98DC040E546E1F
:1007D000FA0E556EA3DC542EFBD787DC1E6A1D6A09
:1007E0001C6A1B6AB0D11EC057F01DC056F01CC059
:1007F00055F01BC054F05B6A5A6A596A640E586E11
:1008000036DD03C057F002C056F001C055F000C0FD
:1008100054F02D50005C39E12E50555C36E15652B3
:1008200034E1575232E161DC1EC057F01DC056F072
:100830001CC055F01BC054F05B6A5A6A596A640EBA
:10084000586E15DDEFCF1FF0ECCF20F0FE0E9EA806
:10085000FED7AD6E800E9EA8FED7AD6E9A0EF66ED8
:100860000B0EF76E0F0E546E49DC100EE96E20C0B1
:1008700055F01FC054F038DD040E546EFA0E556E5C
:100880004DDC542EFBD731DC5ED11EC057F01DC0AD
:1008900056F01CC055F01BC054F05B6A5A6A270E14
:1008A000596E100E586EE3DC03C057F002C056F0CC
:1008B00001C055F000C054F02F50005C3DE13050B5
:1008C000555C3AE1565238E1575236E10EDC1EC013
:1008D00057F01DC056F01CC055F01BC054F05B6AA9
:1008E0005A6A270E596E100E586EC1DCEFCF21F0F8
:1008F000ECCF22F0FE0E9EA8FED7AD6E800E9EA815
:10090000FED7AD6EB20EF66E0B0EF76E140E546E71
:100910007EEC00F0100EE96E22C055F021C054F0BC
:10092000E3DC040E546EFA0E556E8EEC00F0542E7D
:10093000FAD775EC00F007D11EC057F01DC056F075
:100940001CC055F01BC054F05B6A5A6A596A640EA9
:10095000586E8DDC03C057F002C056F001C055F050
:1009600000C054F03150005C3DE13250555C3AE13A
:10097000565238E1575236E175EC00F01EC057F080
:100980001DC056F01CC055F01BC054F05B6A5A6A7B
:10099000596A640E586E6BDCEFCF27F0ECCF28F06D
:1009A000FE0E9EA8FED7AD6E800E9EA8FED7AD6E41
:1009B000CE0EF66E0B0EF76E100E546E7EEC00F03F
:1009C000100EE96E28C055F027C054F08DDC040EDF
:1009D000546EFA0E556E8EEC00F0542EFAD775EC6C
:1009E00000F0B1D01EC057F01DC056F01CC055F02D
:1009F0001BC054F05B6A5A6A030E596EE80E586EBB
:100A000036DC03C057F002C056F001C055F000C0FC
:100A100054F03350005CD8A471D03450555CD8A445
:100A20006DD056526BE1575269E175EC00F01EC073
:100A300057F01DC056F01CC055F01BC054F05B6A47
:100A40005A6A030E596EE80E586E11DCEFCF54F05F
:100A5000ECCF55F0ECCF56F0ECCF57F0575207E102
:100A6000565205E1555203E15450B40811E2FE0E0E
:100A70009EA8FED7AD6E800E9EA8FED7AD6EE60E88
:100A8000F66E0B0EF76E110E546E7EEC00F02BD04E
:100A90001EC057F01DC056F01CC055F01BC054F0CE
:100AA0005B6A5A6A030E596EE80E586E37EC01F015
:100AB000EFCF23F0ECCF24F0FE0E9EA8FED7AD6E54
:100AC000800E9EA8FED7AD6EFC0EF66E0B0EF76E76
:100AD000100E546E7EEC00F0100EE96E24C055F03E
:100AE00023C054F001DC040E546EFA0E556E8EECE9
:100AF00000F0542EFAD775EC00F025D01B50B80842
:100B000022E11C5082081FE11D2C1DD01E521BE14A
:100B10003DD4FE0E9EA8FED7AD6E800E9EA8FED7D9
:100B2000AD6E140EF66E0C0EF76E110E546E7EEC5A
:100B300000F0040E546EFA0E556E8EEC00F0542E3A
:100B4000FAD775EC00F095908C8095928C829594F4
:100B50008C84F288F2922AEF00F025632563416CC1
:100B600061726D652061726DE96520002563256302
:100B7000416C61726D652064657361726D656500BD
:100B800025632563416C61726D65206E6F6E206117
:100B9000726D65650000256325634E6F757665612E
:100BA0007520636F6465203A20256C75000025630D
:100BB00025634E6F757665617520636F646520648B
:100BC000657361203A20256C7500256325634E6F9F
:100BD00075766561752064656C6169203A20256CC5
:100BE00075002563256344757265652074726F70A6
:100BF000206C6F6E67756500256325634E6F757693
:100C00006561752064656C6169203A20256C75000A
:100C100025632563506172616D657472657320721E
:100C20006573657473002563256354656D70732067
:100C300072657374616E74203A2025660000256326
:100C40002563496E74727573696F6E20646574658F
:100C5000637465650000166AF2BE168EF29E640E1D
:100C6000556E8EEC00F016BEF28E166AF2BE168E2F
:100C7000F29E640E556E8EEC00F016BEF28E166A71
:100C8000F2BE168EF29E640E556E8EEC00F016BE0D
:100C9000F28E166AF2BE168EF29E640E556E8EECC1
:100CA00000F016BEF28E166AF2BE168EF29E640E2A
:100CB000556E8EEC00F016BEF28E166AF2BE168EDF
:100CC000F29E640E556E8EEC00F016BEF28E166A21
:100CD000F2BE168EF29E640E556E8EEC00F016BEBD
:100CE000F28E166AF2BE168EF29E640E556E8EEC71
:100CF00000F016BEF28E166AF2BE168EF29E640EDA
:100D0000556E8EEC00F016BEF28E166AF2BE168E8E
:100D1000F29E640E556E8EEC00F016BEF28E252A01
:100D2000D8B4262A35A003D02B2AD8B42C2A35A231
:100D300003D0292AD8B42A2A80EF08F08E0E006E3C
:100D40003BC001F03AC002F0036A015209E102C05F
:100D500001F0026A080E005E015202E1006A08D04A
:100D6000D89001BE04D0023601360006F9D7019EA4
:100D700090EF08F04750D8B471D0006E4B50D8B403
:100D80006DD0002604E3810E002668E204D07F0EB9
:100D9000005E64E363E048C04FF04C504F1A488E49
:100DA0004C8E4A504E02F4CF51F049504D02F4CFD0
:100DB00003F0F3CF50F04E02F3505126F45050227E
:100DC000000E03224A504D02F3505126F450502297
:100DD000000E026A0322022248504E02F3505026AF
:100DE000F4500322000E022248504D02F350032615
:100DF000F4500222000E016A01224A504C02F350C4
:100E00005026F4500322000E0222012249504C02C7
:100E1000F3500326F4500222000E012248504C02E7
:100E2000F3500226F4500122002A01BE05D05036AC
:100E30000336023601360006000E50AE0AD0032AF1
:100E400002220122015005E1025003E1035001E1B9
:100E5000002A4FBE018E4FAE019E04D0006A016A87
:100E6000026A036A68EF07F04750B608476E036AE4
:100E700048C04BF0488ED890483249324A3203324B
:100E8000023201320032472EF6D74BAE0BD0001E95
:100E9000011E021E031E002AD8B4012AD8B4022A59
:100EA000D8B4032A7BEF07F0E9503F6E3E50416E05
:100EB00019E03DC04AF03CC049F03BC048F03AC0A0
:100EC00047F04E6A4D6A200E4C6E820E4B6E52D722
:100ED00003C03DF002C03CF001C03BF000C03AF05E
:100EE000412EE7D73DC04AF03CC049F03BC048F036
:100EF0003AC047F0B9D703C03DF002C03CF001C092
:100F00003BF000C03AF03DAE0DD03F063F8A3A1E9E
:100F10003B1E3C1E3D1E3A2AD8B43B2AD8B43C2A7C
:100F2000D8B43D2A3B0E466E9A0E456ECA0E446EEC
:100F3000436A0A0E416E3E50D8B43F2A166AF2BE8A
:100F4000168EF29E3DC057F03CC056F03BC055F0A7
:100F50003AC054F046C05BF045C05AF044C059F066
:100F600043C058F037EC01F016BEF28E0150EFCFBF
:100F70003AF0ECCF3BF0ECCF3CF0ECCF3DF0005240
:100F80000FE13E28415C0CE03F500CE00F0B415C50
:100F900001E03BE23FBE39D03FBC04D0200E30D050
:100FA000200E3F163FAA0DD03F9A3E50D8A43F06D0
:100FB00000503F6E2D0E9EA8FED7AD6E3F50006EC6
:100FC0003F6A3E50415C0BE100503F6E2E0E9EA8E2
:100FD000FED7AD6E3F50006E200E3F16000E300E55
:100FE0003FAA0ED03F9A3E50D8A43F0600503F6E15
:100FF0002D0E9EA8FED7AD6E3F50006E3F6A300E9C
:10100000002600509EA8FED7AD6E166AF2BE168E60
:10101000F29E46C057F045C056F044C055F043C05C
:1010200054F05B6A5A6A596A0A0E586E37EC01F03E
:1010300016BEF28E03C046F002C045F001C044F077
:1010400000C043F0412E7AD7BBEF08F0F86AD09E7B
:10105000078EEA6AE96A810EAF6EA60EAC6E900E3C
:10106000AB6E1A6A196A186A176A206A210E1F6E17
:10107000040E226ED40E216E246AB40E236E266AEC
:10108000256A286A140E276E2A6A296A2C6A2B6A36
:101090002E6A0A0E2D6E306A0B0E2F6E326A140EF7
:1010A000316E346A1E0E336E396A386A376A366AB0
:1010B000C180C182C184C196C190C182C184C186F0
:1010C000C19CC29CC29EC19EC2809698C69A949AA8
:1010D00094889496010EC66E000EC76ED190800E55
:1010E000D56ECD6A000ECA6E000ECB6EF288C00EB1
:1010F000F21295908C8095928C8295948C84ABD5CD
:1011000035A076D094908B8035B842D02B50275C98
:10111000006E2C502858036E00C03AF03B6E0ED67D
:1011200003C039F002C038F001C037F000C036F01B
:10113000FE0E9EA8FED7AD6E800E9EA8FED7AD6EA9
:101140002A0EF66E0C0EF76E166AF2BE168EF29E20
:10115000100E546E7EEC00F016BEF28E890EE96E13
:1011600039C03DF038C03CF037C03BF036C03AF0F3
:10117000020E3E6E99D62550010B3A6E3B6A3A52EA
:1011800005E13B5203E19290898002D092908990D0
:1011900035A805D035BA03D075EC00F0358A9382B6
:1011A00081A203D094928B823582938481A403D050
:1011B00094948B843582938681A603D0949A8B8AEB
:1011C0003582938881A803D094988B883582938A3E
:1011D00081AA05D035A803D096908D803582938C56
:1011E00081AC05D035A803D096928D82358202D08D
:1011F00094908B9035A20AD02A50245C07E303E137
:101200002950235C03E3939E8A8E02D0939E8A9E8C
:1012100028502C5C05E303E127502B5C01E3358863
:1012200035A21BD035889290899075EC00F0FE0EA7
:101230009EA8FED7AD6E800E9EA8FED7AD6E420E64
:10124000F66E0C0EF76E166AF2BE168EF29E120E37
:0E125000546E7EEC00F016BEF28E51D70300F5
:020000040030CA
:0E00000000220D0E000181000FC00FE00F4026
:00000001FF
;PIC18F452
;CRC=384B  CREATED="06-avr.-21 16:38"
